{
  "_format": "hh-sol-artifact-1",
  "contractName": "BuyNftSword",
  "sourceName": "contracts/Sword.sol",
  "abi": [
    {
      "inputs": [
        {
          "internalType": "address",
          "name": "tokenAddress",
          "type": "address"
        }
      ],
      "stateMutability": "nonpayable",
      "type": "constructor"
    },
    {
      "anonymous": false,
      "inputs": [
        {
          "indexed": true,
          "internalType": "address",
          "name": "account",
          "type": "address"
        },
        {
          "indexed": true,
          "internalType": "address",
          "name": "operator",
          "type": "address"
        },
        {
          "indexed": false,
          "internalType": "bool",
          "name": "approved",
          "type": "bool"
        }
      ],
      "name": "ApprovalForAll",
      "type": "event"
    },
    {
      "anonymous": false,
      "inputs": [
        {
          "indexed": false,
          "internalType": "address",
          "name": "user",
          "type": "address"
        },
        {
          "indexed": false,
          "internalType": "uint256",
          "name": "tokenID",
          "type": "uint256"
        },
        {
          "indexed": false,
          "internalType": "uint256",
          "name": "quantity",
          "type": "uint256"
        }
      ],
      "name": "BuyNftEther",
      "type": "event"
    },
    {
      "anonymous": false,
      "inputs": [
        {
          "indexed": false,
          "internalType": "address",
          "name": "user",
          "type": "address"
        },
        {
          "indexed": false,
          "internalType": "uint256",
          "name": "tokenID",
          "type": "uint256"
        },
        {
          "indexed": false,
          "internalType": "uint256",
          "name": "quantity",
          "type": "uint256"
        }
      ],
      "name": "BuyNftTokenCoin",
      "type": "event"
    },
    {
      "anonymous": false,
      "inputs": [
        {
          "indexed": true,
          "internalType": "address",
          "name": "previousOwner",
          "type": "address"
        },
        {
          "indexed": true,
          "internalType": "address",
          "name": "newOwner",
          "type": "address"
        }
      ],
      "name": "OwnershipTransferred",
      "type": "event"
    },
    {
      "anonymous": false,
      "inputs": [
        {
          "indexed": false,
          "internalType": "address",
          "name": "user",
          "type": "address"
        },
        {
          "indexed": false,
          "internalType": "uint256",
          "name": "id",
          "type": "uint256"
        },
        {
          "indexed": false,
          "internalType": "uint256",
          "name": "price",
          "type": "uint256"
        }
      ],
      "name": "SetPriceNft",
      "type": "event"
    },
    {
      "anonymous": false,
      "inputs": [
        {
          "indexed": false,
          "internalType": "address",
          "name": "user",
          "type": "address"
        },
        {
          "indexed": false,
          "internalType": "uint256",
          "name": "startTime",
          "type": "uint256"
        },
        {
          "indexed": false,
          "internalType": "uint256",
          "name": "endTime",
          "type": "uint256"
        }
      ],
      "name": "SetTimeOnSale",
      "type": "event"
    },
    {
      "anonymous": false,
      "inputs": [
        {
          "indexed": false,
          "internalType": "address",
          "name": "user",
          "type": "address"
        },
        {
          "indexed": false,
          "internalType": "uint256",
          "name": "quantity",
          "type": "uint256"
        }
      ],
      "name": "SwapNft",
      "type": "event"
    },
    {
      "anonymous": false,
      "inputs": [
        {
          "indexed": true,
          "internalType": "address",
          "name": "operator",
          "type": "address"
        },
        {
          "indexed": true,
          "internalType": "address",
          "name": "from",
          "type": "address"
        },
        {
          "indexed": true,
          "internalType": "address",
          "name": "to",
          "type": "address"
        },
        {
          "indexed": false,
          "internalType": "uint256[]",
          "name": "ids",
          "type": "uint256[]"
        },
        {
          "indexed": false,
          "internalType": "uint256[]",
          "name": "values",
          "type": "uint256[]"
        }
      ],
      "name": "TransferBatch",
      "type": "event"
    },
    {
      "anonymous": false,
      "inputs": [
        {
          "indexed": true,
          "internalType": "address",
          "name": "operator",
          "type": "address"
        },
        {
          "indexed": true,
          "internalType": "address",
          "name": "from",
          "type": "address"
        },
        {
          "indexed": true,
          "internalType": "address",
          "name": "to",
          "type": "address"
        },
        {
          "indexed": false,
          "internalType": "uint256",
          "name": "id",
          "type": "uint256"
        },
        {
          "indexed": false,
          "internalType": "uint256",
          "name": "value",
          "type": "uint256"
        }
      ],
      "name": "TransferSingle",
      "type": "event"
    },
    {
      "anonymous": false,
      "inputs": [
        {
          "indexed": false,
          "internalType": "string",
          "name": "value",
          "type": "string"
        },
        {
          "indexed": true,
          "internalType": "uint256",
          "name": "id",
          "type": "uint256"
        }
      ],
      "name": "URI",
      "type": "event"
    },
    {
      "inputs": [
        {
          "internalType": "address",
          "name": "",
          "type": "address"
        }
      ],
      "name": "amountBought",
      "outputs": [
        {
          "internalType": "uint256",
          "name": "",
          "type": "uint256"
        }
      ],
      "stateMutability": "view",
      "type": "function"
    },
    {
      "inputs": [
        {
          "internalType": "address",
          "name": "account",
          "type": "address"
        },
        {
          "internalType": "uint256",
          "name": "id",
          "type": "uint256"
        }
      ],
      "name": "balanceOf",
      "outputs": [
        {
          "internalType": "uint256",
          "name": "",
          "type": "uint256"
        }
      ],
      "stateMutability": "view",
      "type": "function"
    },
    {
      "inputs": [
        {
          "internalType": "address[]",
          "name": "accounts",
          "type": "address[]"
        },
        {
          "internalType": "uint256[]",
          "name": "ids",
          "type": "uint256[]"
        }
      ],
      "name": "balanceOfBatch",
      "outputs": [
        {
          "internalType": "uint256[]",
          "name": "",
          "type": "uint256[]"
        }
      ],
      "stateMutability": "view",
      "type": "function"
    },
    {
      "inputs": [
        {
          "internalType": "bool",
          "name": "isNativePayment",
          "type": "bool"
        },
        {
          "internalType": "uint256",
          "name": "tokenId",
          "type": "uint256"
        },
        {
          "internalType": "uint256",
          "name": "quantity",
          "type": "uint256"
        }
      ],
      "name": "buyNft",
      "outputs": [],
      "stateMutability": "payable",
      "type": "function"
    },
    {
      "inputs": [],
      "name": "endTime",
      "outputs": [
        {
          "internalType": "uint256",
          "name": "",
          "type": "uint256"
        }
      ],
      "stateMutability": "view",
      "type": "function"
    },
    {
      "inputs": [],
      "name": "generateRandomNumber",
      "outputs": [
        {
          "internalType": "uint256",
          "name": "",
          "type": "uint256"
        }
      ],
      "stateMutability": "view",
      "type": "function"
    },
    {
      "inputs": [
        {
          "internalType": "address",
          "name": "account",
          "type": "address"
        },
        {
          "internalType": "address",
          "name": "operator",
          "type": "address"
        }
      ],
      "name": "isApprovedForAll",
      "outputs": [
        {
          "internalType": "bool",
          "name": "",
          "type": "bool"
        }
      ],
      "stateMutability": "view",
      "type": "function"
    },
    {
      "inputs": [],
      "name": "maxQuantityNft",
      "outputs": [
        {
          "internalType": "uint256",
          "name": "",
          "type": "uint256"
        }
      ],
      "stateMutability": "view",
      "type": "function"
    },
    {
      "inputs": [],
      "name": "myTokenContract",
      "outputs": [
        {
          "internalType": "contract MyToken",
          "name": "",
          "type": "address"
        }
      ],
      "stateMutability": "view",
      "type": "function"
    },
    {
      "inputs": [
        {
          "internalType": "uint256",
          "name": "",
          "type": "uint256"
        }
      ],
      "name": "nftPrices",
      "outputs": [
        {
          "internalType": "uint256",
          "name": "",
          "type": "uint256"
        }
      ],
      "stateMutability": "view",
      "type": "function"
    },
    {
      "inputs": [],
      "name": "owner",
      "outputs": [
        {
          "internalType": "address",
          "name": "",
          "type": "address"
        }
      ],
      "stateMutability": "view",
      "type": "function"
    },
    {
      "inputs": [],
      "name": "renounceOwnership",
      "outputs": [],
      "stateMutability": "nonpayable",
      "type": "function"
    },
    {
      "inputs": [
        {
          "internalType": "address",
          "name": "from",
          "type": "address"
        },
        {
          "internalType": "address",
          "name": "to",
          "type": "address"
        },
        {
          "internalType": "uint256[]",
          "name": "ids",
          "type": "uint256[]"
        },
        {
          "internalType": "uint256[]",
          "name": "amounts",
          "type": "uint256[]"
        },
        {
          "internalType": "bytes",
          "name": "data",
          "type": "bytes"
        }
      ],
      "name": "safeBatchTransferFrom",
      "outputs": [],
      "stateMutability": "nonpayable",
      "type": "function"
    },
    {
      "inputs": [
        {
          "internalType": "address",
          "name": "from",
          "type": "address"
        },
        {
          "internalType": "address",
          "name": "to",
          "type": "address"
        },
        {
          "internalType": "uint256",
          "name": "id",
          "type": "uint256"
        },
        {
          "internalType": "uint256",
          "name": "amount",
          "type": "uint256"
        },
        {
          "internalType": "bytes",
          "name": "data",
          "type": "bytes"
        }
      ],
      "name": "safeTransferFrom",
      "outputs": [],
      "stateMutability": "nonpayable",
      "type": "function"
    },
    {
      "inputs": [
        {
          "internalType": "address",
          "name": "operator",
          "type": "address"
        },
        {
          "internalType": "bool",
          "name": "approved",
          "type": "bool"
        }
      ],
      "name": "setApprovalForAll",
      "outputs": [],
      "stateMutability": "nonpayable",
      "type": "function"
    },
    {
      "inputs": [
        {
          "internalType": "uint256",
          "name": "id",
          "type": "uint256"
        },
        {
          "internalType": "uint256",
          "name": "_price",
          "type": "uint256"
        }
      ],
      "name": "setPriceNft",
      "outputs": [],
      "stateMutability": "nonpayable",
      "type": "function"
    },
    {
      "inputs": [
        {
          "internalType": "uint256",
          "name": "_startTime",
          "type": "uint256"
        },
        {
          "internalType": "uint256",
          "name": "_endTime",
          "type": "uint256"
        }
      ],
      "name": "setTimeOnSale",
      "outputs": [],
      "stateMutability": "nonpayable",
      "type": "function"
    },
    {
      "inputs": [],
      "name": "startTime",
      "outputs": [
        {
          "internalType": "uint256",
          "name": "",
          "type": "uint256"
        }
      ],
      "stateMutability": "view",
      "type": "function"
    },
    {
      "inputs": [
        {
          "internalType": "bytes4",
          "name": "interfaceId",
          "type": "bytes4"
        }
      ],
      "name": "supportsInterface",
      "outputs": [
        {
          "internalType": "bool",
          "name": "",
          "type": "bool"
        }
      ],
      "stateMutability": "view",
      "type": "function"
    },
    {
      "inputs": [],
      "name": "swapNft",
      "outputs": [],
      "stateMutability": "nonpayable",
      "type": "function"
    },
    {
      "inputs": [],
      "name": "swordIronId",
      "outputs": [
        {
          "internalType": "uint256",
          "name": "",
          "type": "uint256"
        }
      ],
      "stateMutability": "view",
      "type": "function"
    },
    {
      "inputs": [],
      "name": "swordWoodId",
      "outputs": [
        {
          "internalType": "uint256",
          "name": "",
          "type": "uint256"
        }
      ],
      "stateMutability": "view",
      "type": "function"
    },
    {
      "inputs": [],
      "name": "token",
      "outputs": [
        {
          "internalType": "contract IERC20",
          "name": "",
          "type": "address"
        }
      ],
      "stateMutability": "view",
      "type": "function"
    },
    {
      "inputs": [
        {
          "internalType": "address",
          "name": "newOwner",
          "type": "address"
        }
      ],
      "name": "transferOwnership",
      "outputs": [],
      "stateMutability": "nonpayable",
      "type": "function"
    },
    {
      "inputs": [
        {
          "internalType": "uint256",
          "name": "",
          "type": "uint256"
        }
      ],
      "name": "uri",
      "outputs": [
        {
          "internalType": "string",
          "name": "",
          "type": "string"
        }
      ],
      "stateMutability": "view",
      "type": "function"
    }
  ],
  "bytecode": "0x6080604052600a6006553480156200001657600080fd5b506040516200466f3803806200466f83398181016040528101906200003c91906200027a565b604051806020016040528060008152506200005d816200012d60201b60201c565b506200007e620000726200014260201b60201c565b6200014a60201b60201c565b600160048190555080600560006101000a81548173ffffffffffffffffffffffffffffffffffffffff021916908373ffffffffffffffffffffffffffffffffffffffff160217905550670de0b6b3a7640000600a6000808152602001908152602001600020819055506729a2241af62c0000600a600060018152602001908152602001600020819055504260078190555062093a8042620001209190620002e5565b6008819055505062000677565b80600290816200013e919062000590565b5050565b600033905090565b6000600360009054906101000a900473ffffffffffffffffffffffffffffffffffffffff16905081600360006101000a81548173ffffffffffffffffffffffffffffffffffffffff021916908373ffffffffffffffffffffffffffffffffffffffff1602179055508173ffffffffffffffffffffffffffffffffffffffff168173ffffffffffffffffffffffffffffffffffffffff167f8be0079c531659141344cd1fd0a4f28419497f9722a3daafe3b4186f6b6457e060405160405180910390a35050565b600080fd5b600073ffffffffffffffffffffffffffffffffffffffff82169050919050565b6000620002428262000215565b9050919050565b620002548162000235565b81146200026057600080fd5b50565b600081519050620002748162000249565b92915050565b60006020828403121562000293576200029262000210565b5b6000620002a38482850162000263565b91505092915050565b6000819050919050565b7f4e487b7100000000000000000000000000000000000000000000000000000000600052601160045260246000fd5b6000620002f282620002ac565b9150620002ff83620002ac565b92508282019050808211156200031a5762000319620002b6565b5b92915050565b600081519050919050565b7f4e487b7100000000000000000000000000000000000000000000000000000000600052604160045260246000fd5b7f4e487b7100000000000000000000000000000000000000000000000000000000600052602260045260246000fd5b60006002820490506001821680620003a257607f821691505b602082108103620003b857620003b76200035a565b5b50919050565b60008190508160005260206000209050919050565b60006020601f8301049050919050565b600082821b905092915050565b600060088302620004227fffffffffffffffffffffffffffffffffffffffffffffffffffffffffffffffff82620003e3565b6200042e8683620003e3565b95508019841693508086168417925050509392505050565b6000819050919050565b6000620004716200046b6200046584620002ac565b62000446565b620002ac565b9050919050565b6000819050919050565b6200048d8362000450565b620004a56200049c8262000478565b848454620003f0565b825550505050565b600090565b620004bc620004ad565b620004c981848462000482565b505050565b5b81811015620004f157620004e5600082620004b2565b600181019050620004cf565b5050565b601f82111562000540576200050a81620003be565b6200051584620003d3565b8101602085101562000525578190505b6200053d6200053485620003d3565b830182620004ce565b50505b505050565b600082821c905092915050565b6000620005656000198460080262000545565b1980831691505092915050565b600062000580838362000552565b9150826002028217905092915050565b6200059b8262000320565b67ffffffffffffffff811115620005b757620005b66200032b565b5b620005c3825462000389565b620005d0828285620004f5565b600060209050601f831160018114620006085760008415620005f3578287015190505b620005ff858262000572565b8655506200066f565b601f1984166200061886620003be565b60005b8281101562000642578489015182556001820191506020850194506020810190506200061b565b868310156200066257848901516200065e601f89168262000552565b8355505b6001600288020188555050505b505050505050565b613fe880620006876000396000f3fe6080604052600436106101655760003560e01c806378e97925116100d1578063cb22d14b1161008a578063e985e9c511610064578063e985e9c51461051e578063f242432a1461055b578063f2fde38b14610584578063fc0c546a146105ad57610165565b8063cb22d14b1461048d578063d6f79b77146104b8578063d9f10a2b146104e157610165565b806378e979251461039e57806385f43379146103c95780638da5cb5b146103e557806398f1950d14610410578063a22cb46514610439578063bb134cfb1461046257610165565b80633197cbb6116101235780633197cbb6146102b25780634e1273f4146102dd57806356e77b4e1461031a5780636f8afcef14610345578063715018a61461035c578063773a11541461037357610165565b8062fdd58e1461016a57806301ffc9a7146101a75780630e89341c146101e45780632375bd53146102215780632d4a16dd1461024c5780632eb2c2d614610289575b600080fd5b34801561017657600080fd5b50610191600480360381019061018c91906124a7565b6105d8565b60405161019e91906124f6565b60405180910390f35b3480156101b357600080fd5b506101ce60048036038101906101c99190612569565b6106a0565b6040516101db91906125b1565b60405180910390f35b3480156101f057600080fd5b5061020b600480360381019061020691906125cc565b610782565b6040516102189190612689565b60405180910390f35b34801561022d57600080fd5b50610236610816565b60405161024391906124f6565b60405180910390f35b34801561025857600080fd5b50610273600480360381019061026e91906126ab565b61081b565b60405161028091906124f6565b60405180910390f35b34801561029557600080fd5b506102b060048036038101906102ab91906128d5565b610833565b005b3480156102be57600080fd5b506102c76108d4565b6040516102d491906124f6565b60405180910390f35b3480156102e957600080fd5b5061030460048036038101906102ff9190612a67565b6108da565b6040516103119190612b9d565b60405180910390f35b34801561032657600080fd5b5061032f6109f3565b60405161033c91906124f6565b60405180910390f35b34801561035157600080fd5b5061035a6109f8565b005b34801561036857600080fd5b50610371610b14565b005b34801561037f57600080fd5b50610388610b28565b60405161039591906124f6565b60405180910390f35b3480156103aa57600080fd5b506103b3610b70565b6040516103c091906124f6565b60405180910390f35b6103e360048036038101906103de9190612beb565b610b76565b005b3480156103f157600080fd5b506103fa610f13565b6040516104079190612c4d565b60405180910390f35b34801561041c57600080fd5b5061043760048036038101906104329190612c68565b610f3d565b005b34801561044557600080fd5b50610460600480360381019061045b9190612ca8565b610f92565b005b34801561046e57600080fd5b50610477610fa8565b6040516104849190612d47565b60405180910390f35b34801561049957600080fd5b506104a2610fce565b6040516104af91906124f6565b60405180910390f35b3480156104c457600080fd5b506104df60048036038101906104da9190612c68565b610fd4565b005b3480156104ed57600080fd5b50610508600480360381019061050391906125cc565b611081565b60405161051591906124f6565b60405180910390f35b34801561052a57600080fd5b5061054560048036038101906105409190612d62565b611099565b60405161055291906125b1565b60405180910390f35b34801561056757600080fd5b50610582600480360381019061057d9190612da2565b61112d565b005b34801561059057600080fd5b506105ab60048036038101906105a691906126ab565b6111ce565b005b3480156105b957600080fd5b506105c2611251565b6040516105cf9190612e5a565b60405180910390f35b60008073ffffffffffffffffffffffffffffffffffffffff168373ffffffffffffffffffffffffffffffffffffffff1603610648576040517f08c379a000000000000000000000000000000000000000000000000000000000815260040161063f90612ee7565b60405180910390fd5b60008083815260200190815260200160002060008473ffffffffffffffffffffffffffffffffffffffff1673ffffffffffffffffffffffffffffffffffffffff16815260200190815260200160002054905092915050565b60007fd9b67a26000000000000000000000000000000000000000000000000000000007bffffffffffffffffffffffffffffffffffffffffffffffffffffffff1916827bffffffffffffffffffffffffffffffffffffffffffffffffffffffff1916148061076b57507f0e89341c000000000000000000000000000000000000000000000000000000007bffffffffffffffffffffffffffffffffffffffffffffffffffffffff1916827bffffffffffffffffffffffffffffffffffffffffffffffffffffffff1916145b8061077b575061077a82611277565b5b9050919050565b60606002805461079190612f36565b80601f01602080910402602001604051908101604052809291908181526020018280546107bd90612f36565b801561080a5780601f106107df5761010080835404028352916020019161080a565b820191906000526020600020905b8154815290600101906020018083116107ed57829003601f168201915b50505050509050919050565b600081565b600b6020528060005260406000206000915090505481565b61083b6112e1565b73ffffffffffffffffffffffffffffffffffffffff168573ffffffffffffffffffffffffffffffffffffffff16148061088157506108808561087b6112e1565b611099565b5b6108c0576040517f08c379a00000000000000000000000000000000000000000000000000000000081526004016108b790612fd9565b60405180910390fd5b6108cd85858585856112e9565b5050505050565b60085481565b60608151835114610920576040517f08c379a00000000000000000000000000000000000000000000000000000000081526004016109179061306b565b60405180910390fd5b6000835167ffffffffffffffff81111561093d5761093c6126dd565b5b60405190808252806020026020018201604052801561096b5781602001602082028036833780820191505090505b50905060005b84518110156109e8576109b88582815181106109905761098f61308b565b5b60200260200101518583815181106109ab576109aa61308b565b5b60200260200101516105d8565b8282815181106109cb576109ca61308b565b5b602002602001018181525050806109e1906130e9565b9050610971565b508091505092915050565b600181565b610a0061160a565b6005600b60003373ffffffffffffffffffffffffffffffffffffffff1673ffffffffffffffffffffffffffffffffffffffff168152602001908152602001600020541015610a83576040517f08c379a0000000000000000000000000000000000000000000000000000000008152600401610a7a9061317d565b60405180910390fd5b6002610a903360006105d8565b1015610ad1576040517f08c379a0000000000000000000000000000000000000000000000000000000008152600401610ac89061320f565b60405180910390fd5b6032610adb610b28565b10610afd57610afc3360018060405180602001604052806000815250611659565b5b610b0a3360006002611809565b610b12611a4f565b565b610b1c611a59565b610b266000611ad7565b565b600080606442334443604051602001610b449493929190613298565b6040516020818303038152906040528051906020012060001c610b679190613315565b90508091505090565b60075481565b6007544210158015610b8a57506008544211155b610bc9576040517f08c379a0000000000000000000000000000000000000000000000000000000008152600401610bc090613392565b60405180910390fd5b610bd161160a565b6000821480610be05750600182145b610c1f576040517f08c379a0000000000000000000000000000000000000000000000000000000008152600401610c16906133fe565b60405180910390fd5b60065481600b60003373ffffffffffffffffffffffffffffffffffffffff1673ffffffffffffffffffffffffffffffffffffffff16815260200190815260200160002054610c6d919061341e565b1115610cae576040517f08c379a0000000000000000000000000000000000000000000000000000000008152600401610ca5906134c4565b60405180910390fd5b600081600a600085815260200190815260200160002054610ccf91906134e4565b90508315610dad5781600a600085815260200190815260200160002054610cf691906134e4565b3414610d37576040517f08c379a0000000000000000000000000000000000000000000000000000000008152600401610d2e90613572565b60405180910390fd5b610d5233848460405180602001604052806000815250611659565b81600b60003373ffffffffffffffffffffffffffffffffffffffff1673ffffffffffffffffffffffffffffffffffffffff1681526020019081526020016000206000828254610da1919061341e565b92505081905550610f05565b60003414610df0576040517f08c379a0000000000000000000000000000000000000000000000000000000008152600401610de7906135de565b60405180910390fd5b600560009054906101000a900473ffffffffffffffffffffffffffffffffffffffff1673ffffffffffffffffffffffffffffffffffffffff166323b872dd3330846040518463ffffffff1660e01b8152600401610e4f939291906135fe565b6020604051808303816000875af1158015610e6e573d6000803e3d6000fd5b505050506040513d601f19601f82011682018060405250810190610e92919061364a565b50610eae33848460405180602001604052806000815250611659565b81600b60003373ffffffffffffffffffffffffffffffffffffffff1673ffffffffffffffffffffffffffffffffffffffff1681526020019081526020016000206000828254610efd919061341e565b925050819055505b50610f0e611a4f565b505050565b6000600360009054906101000a900473ffffffffffffffffffffffffffffffffffffffff16905090565b610f45611a59565b81600781905550806008819055507fd9d069d741dae0fa3479ba0a96f186ea06bac2b26114d0baf637d19215a43581338383604051610f8693929190613677565b60405180910390a15050565b610fa4610f9d6112e1565b8383611b9d565b5050565b600960009054906101000a900473ffffffffffffffffffffffffffffffffffffffff1681565b60065481565b610fdc611a59565b6000821480610feb5750600182145b61102a576040517f08c379a0000000000000000000000000000000000000000000000000000000008152600401611021906133fe565b60405180910390fd5b80600a6000848152602001908152602001600020819055507fa2dd9604d212a11b417e71d786af2d996b8155d8f3fa629e9cf4a6adc7cda12b33838360405161107593929190613677565b60405180910390a15050565b600a6020528060005260406000206000915090505481565b6000600160008473ffffffffffffffffffffffffffffffffffffffff1673ffffffffffffffffffffffffffffffffffffffff16815260200190815260200160002060008373ffffffffffffffffffffffffffffffffffffffff1673ffffffffffffffffffffffffffffffffffffffff16815260200190815260200160002060009054906101000a900460ff16905092915050565b6111356112e1565b73ffffffffffffffffffffffffffffffffffffffff168573ffffffffffffffffffffffffffffffffffffffff16148061117b575061117a856111756112e1565b611099565b5b6111ba576040517f08c379a00000000000000000000000000000000000000000000000000000000081526004016111b190612fd9565b60405180910390fd5b6111c78585858585611d09565b5050505050565b6111d6611a59565b600073ffffffffffffffffffffffffffffffffffffffff168173ffffffffffffffffffffffffffffffffffffffff1603611245576040517f08c379a000000000000000000000000000000000000000000000000000000000815260040161123c90613720565b60405180910390fd5b61124e81611ad7565b50565b600560009054906101000a900473ffffffffffffffffffffffffffffffffffffffff1681565b60007f01ffc9a7000000000000000000000000000000000000000000000000000000007bffffffffffffffffffffffffffffffffffffffffffffffffffffffff1916827bffffffffffffffffffffffffffffffffffffffffffffffffffffffff1916149050919050565b600033905090565b815183511461132d576040517f08c379a0000000000000000000000000000000000000000000000000000000008152600401611324906137b2565b60405180910390fd5b600073ffffffffffffffffffffffffffffffffffffffff168473ffffffffffffffffffffffffffffffffffffffff160361139c576040517f08c379a000000000000000000000000000000000000000000000000000000000815260040161139390613844565b60405180910390fd5b60006113a66112e1565b90506113b6818787878787611fa4565b60005b84518110156115675760008582815181106113d7576113d661308b565b5b6020026020010151905060008583815181106113f6576113f561308b565b5b60200260200101519050600080600084815260200190815260200160002060008b73ffffffffffffffffffffffffffffffffffffffff1673ffffffffffffffffffffffffffffffffffffffff16815260200190815260200160002054905081811015611497576040517f08c379a000000000000000000000000000000000000000000000000000000000815260040161148e906138d6565b60405180910390fd5b81810360008085815260200190815260200160002060008c73ffffffffffffffffffffffffffffffffffffffff1673ffffffffffffffffffffffffffffffffffffffff168152602001908152602001600020819055508160008085815260200190815260200160002060008b73ffffffffffffffffffffffffffffffffffffffff1673ffffffffffffffffffffffffffffffffffffffff168152602001908152602001600020600082825461154c919061341e565b9250508190555050505080611560906130e9565b90506113b9565b508473ffffffffffffffffffffffffffffffffffffffff168673ffffffffffffffffffffffffffffffffffffffff168273ffffffffffffffffffffffffffffffffffffffff167f4a39dc06d4c0dbc64b70af90fd698a233a518aa5d07e595d983b8c0526c8f7fb87876040516115de9291906138f6565b60405180910390a46115f4818787878787611fac565b611602818787878787611fb4565b505050505050565b60026004540361164f576040517f08c379a000000000000000000000000000000000000000000000000000000000815260040161164690613979565b60405180910390fd5b6002600481905550565b600073ffffffffffffffffffffffffffffffffffffffff168473ffffffffffffffffffffffffffffffffffffffff16036116c8576040517f08c379a00000000000000000000000000000000000000000000000000000000081526004016116bf90613a0b565b60405180910390fd5b60006116d26112e1565b905060006116df8561218b565b905060006116ec8561218b565b90506116fd83600089858589611fa4565b8460008088815260200190815260200160002060008973ffffffffffffffffffffffffffffffffffffffff1673ffffffffffffffffffffffffffffffffffffffff168152602001908152602001600020600082825461175c919061341e565b925050819055508673ffffffffffffffffffffffffffffffffffffffff16600073ffffffffffffffffffffffffffffffffffffffff168473ffffffffffffffffffffffffffffffffffffffff167fc3d58168c5ae7397731d063d5bbf3d657854427343f4c083240f7aacaa2d0f6289896040516117da929190613a2b565b60405180910390a46117f183600089858589611fac565b61180083600089898989612205565b50505050505050565b600073ffffffffffffffffffffffffffffffffffffffff168373ffffffffffffffffffffffffffffffffffffffff1603611878576040517f08c379a000000000000000000000000000000000000000000000000000000000815260040161186f90613ac6565b60405180910390fd5b60006118826112e1565b9050600061188f8461218b565b9050600061189c8461218b565b90506118bc83876000858560405180602001604052806000815250611fa4565b600080600087815260200190815260200160002060008873ffffffffffffffffffffffffffffffffffffffff1673ffffffffffffffffffffffffffffffffffffffff16815260200190815260200160002054905084811015611953576040517f08c379a000000000000000000000000000000000000000000000000000000000815260040161194a90613b58565b60405180910390fd5b84810360008088815260200190815260200160002060008973ffffffffffffffffffffffffffffffffffffffff1673ffffffffffffffffffffffffffffffffffffffff16815260200190815260200160002081905550600073ffffffffffffffffffffffffffffffffffffffff168773ffffffffffffffffffffffffffffffffffffffff168573ffffffffffffffffffffffffffffffffffffffff167fc3d58168c5ae7397731d063d5bbf3d657854427343f4c083240f7aacaa2d0f628989604051611a20929190613a2b565b60405180910390a4611a4684886000868660405180602001604052806000815250611fac565b50505050505050565b6001600481905550565b611a616112e1565b73ffffffffffffffffffffffffffffffffffffffff16611a7f610f13565b73ffffffffffffffffffffffffffffffffffffffff1614611ad5576040517f08c379a0000000000000000000000000000000000000000000000000000000008152600401611acc90613bc4565b60405180910390fd5b565b6000600360009054906101000a900473ffffffffffffffffffffffffffffffffffffffff16905081600360006101000a81548173ffffffffffffffffffffffffffffffffffffffff021916908373ffffffffffffffffffffffffffffffffffffffff1602179055508173ffffffffffffffffffffffffffffffffffffffff168173ffffffffffffffffffffffffffffffffffffffff167f8be0079c531659141344cd1fd0a4f28419497f9722a3daafe3b4186f6b6457e060405160405180910390a35050565b8173ffffffffffffffffffffffffffffffffffffffff168373ffffffffffffffffffffffffffffffffffffffff1603611c0b576040517f08c379a0000000000000000000000000000000000000000000000000000000008152600401611c0290613c56565b60405180910390fd5b80600160008573ffffffffffffffffffffffffffffffffffffffff1673ffffffffffffffffffffffffffffffffffffffff16815260200190815260200160002060008473ffffffffffffffffffffffffffffffffffffffff1673ffffffffffffffffffffffffffffffffffffffff16815260200190815260200160002060006101000a81548160ff0219169083151502179055508173ffffffffffffffffffffffffffffffffffffffff168373ffffffffffffffffffffffffffffffffffffffff167f17307eab39ab6107e8899845ad3d59bd9653f200f220920489ca2b5937696c3183604051611cfc91906125b1565b60405180910390a3505050565b600073ffffffffffffffffffffffffffffffffffffffff168473ffffffffffffffffffffffffffffffffffffffff1603611d78576040517f08c379a0000000000000000000000000000000000000000000000000000000008152600401611d6f90613844565b60405180910390fd5b6000611d826112e1565b90506000611d8f8561218b565b90506000611d9c8561218b565b9050611dac838989858589611fa4565b600080600088815260200190815260200160002060008a73ffffffffffffffffffffffffffffffffffffffff1673ffffffffffffffffffffffffffffffffffffffff16815260200190815260200160002054905085811015611e43576040517f08c379a0000000000000000000000000000000000000000000000000000000008152600401611e3a906138d6565b60405180910390fd5b85810360008089815260200190815260200160002060008b73ffffffffffffffffffffffffffffffffffffffff1673ffffffffffffffffffffffffffffffffffffffff168152602001908152602001600020819055508560008089815260200190815260200160002060008a73ffffffffffffffffffffffffffffffffffffffff1673ffffffffffffffffffffffffffffffffffffffff1681526020019081526020016000206000828254611ef8919061341e565b925050819055508773ffffffffffffffffffffffffffffffffffffffff168973ffffffffffffffffffffffffffffffffffffffff168573ffffffffffffffffffffffffffffffffffffffff167fc3d58168c5ae7397731d063d5bbf3d657854427343f4c083240f7aacaa2d0f628a8a604051611f75929190613a2b565b60405180910390a4611f8b848a8a86868a611fac565b611f99848a8a8a8a8a612205565b505050505050505050565b505050505050565b505050505050565b611fd38473ffffffffffffffffffffffffffffffffffffffff166123dc565b15612183578373ffffffffffffffffffffffffffffffffffffffff1663bc197c8187878686866040518663ffffffff1660e01b8152600401612019959493929190613ccb565b6020604051808303816000875af192505050801561205557506040513d601f19601f820116820180604052508101906120529190613d48565b60015b6120fa57612061613d82565b806308c379a0036120bd5750612075613da4565b8061208057506120bf565b806040517f08c379a00000000000000000000000000000000000000000000000000000000081526004016120b49190612689565b60405180910390fd5b505b6040517f08c379a00000000000000000000000000000000000000000000000000000000081526004016120f190613ea6565b60405180910390fd5b63bc197c8160e01b7bffffffffffffffffffffffffffffffffffffffffffffffffffffffff1916817bffffffffffffffffffffffffffffffffffffffffffffffffffffffff191614612181576040517f08c379a000000000000000000000000000000000000000000000000000000000815260040161217890613f38565b60405180910390fd5b505b505050505050565b60606000600167ffffffffffffffff8111156121aa576121a96126dd565b5b6040519080825280602002602001820160405280156121d85781602001602082028036833780820191505090505b50905082816000815181106121f0576121ef61308b565b5b60200260200101818152505080915050919050565b6122248473ffffffffffffffffffffffffffffffffffffffff166123dc565b156123d4578373ffffffffffffffffffffffffffffffffffffffff1663f23a6e6187878686866040518663ffffffff1660e01b815260040161226a959493929190613f58565b6020604051808303816000875af19250505080156122a657506040513d601f19601f820116820180604052508101906122a39190613d48565b60015b61234b576122b2613d82565b806308c379a00361230e57506122c6613da4565b806122d15750612310565b806040517f08c379a00000000000000000000000000000000000000000000000000000000081526004016123059190612689565b60405180910390fd5b505b6040517f08c379a000000000000000000000000000000000000000000000000000000000815260040161234290613ea6565b60405180910390fd5b63f23a6e6160e01b7bffffffffffffffffffffffffffffffffffffffffffffffffffffffff1916817bffffffffffffffffffffffffffffffffffffffffffffffffffffffff1916146123d2576040517f08c379a00000000000000000000000000000000000000000000000000000000081526004016123c990613f38565b60405180910390fd5b505b505050505050565b6000808273ffffffffffffffffffffffffffffffffffffffff163b119050919050565b6000604051905090565b600080fd5b600080fd5b600073ffffffffffffffffffffffffffffffffffffffff82169050919050565b600061243e82612413565b9050919050565b61244e81612433565b811461245957600080fd5b50565b60008135905061246b81612445565b92915050565b6000819050919050565b61248481612471565b811461248f57600080fd5b50565b6000813590506124a18161247b565b92915050565b600080604083850312156124be576124bd612409565b5b60006124cc8582860161245c565b92505060206124dd85828601612492565b9150509250929050565b6124f081612471565b82525050565b600060208201905061250b60008301846124e7565b92915050565b60007fffffffff0000000000000000000000000000000000000000000000000000000082169050919050565b61254681612511565b811461255157600080fd5b50565b6000813590506125638161253d565b92915050565b60006020828403121561257f5761257e612409565b5b600061258d84828501612554565b91505092915050565b60008115159050919050565b6125ab81612596565b82525050565b60006020820190506125c660008301846125a2565b92915050565b6000602082840312156125e2576125e1612409565b5b60006125f084828501612492565b91505092915050565b600081519050919050565b600082825260208201905092915050565b60005b83811015612633578082015181840152602081019050612618565b60008484015250505050565b6000601f19601f8301169050919050565b600061265b826125f9565b6126658185612604565b9350612675818560208601612615565b61267e8161263f565b840191505092915050565b600060208201905081810360008301526126a38184612650565b905092915050565b6000602082840312156126c1576126c0612409565b5b60006126cf8482850161245c565b91505092915050565b600080fd5b7f4e487b7100000000000000000000000000000000000000000000000000000000600052604160045260246000fd5b6127158261263f565b810181811067ffffffffffffffff82111715612734576127336126dd565b5b80604052505050565b60006127476123ff565b9050612753828261270c565b919050565b600067ffffffffffffffff821115612773576127726126dd565b5b602082029050602081019050919050565b600080fd5b600061279c61279784612758565b61273d565b905080838252602082019050602084028301858111156127bf576127be612784565b5b835b818110156127e857806127d48882612492565b8452602084019350506020810190506127c1565b5050509392505050565b600082601f830112612807576128066126d8565b5b8135612817848260208601612789565b91505092915050565b600080fd5b600067ffffffffffffffff8211156128405761283f6126dd565b5b6128498261263f565b9050602081019050919050565b82818337600083830152505050565b600061287861287384612825565b61273d565b90508281526020810184848401111561289457612893612820565b5b61289f848285612856565b509392505050565b600082601f8301126128bc576128bb6126d8565b5b81356128cc848260208601612865565b91505092915050565b600080600080600060a086880312156128f1576128f0612409565b5b60006128ff8882890161245c565b95505060206129108882890161245c565b945050604086013567ffffffffffffffff8111156129315761293061240e565b5b61293d888289016127f2565b935050606086013567ffffffffffffffff81111561295e5761295d61240e565b5b61296a888289016127f2565b925050608086013567ffffffffffffffff81111561298b5761298a61240e565b5b612997888289016128a7565b9150509295509295909350565b600067ffffffffffffffff8211156129bf576129be6126dd565b5b602082029050602081019050919050565b60006129e36129de846129a4565b61273d565b90508083825260208201905060208402830185811115612a0657612a05612784565b5b835b81811015612a2f5780612a1b888261245c565b845260208401935050602081019050612a08565b5050509392505050565b600082601f830112612a4e57612a4d6126d8565b5b8135612a5e8482602086016129d0565b91505092915050565b60008060408385031215612a7e57612a7d612409565b5b600083013567ffffffffffffffff811115612a9c57612a9b61240e565b5b612aa885828601612a39565b925050602083013567ffffffffffffffff811115612ac957612ac861240e565b5b612ad5858286016127f2565b9150509250929050565b600081519050919050565b600082825260208201905092915050565b6000819050602082019050919050565b612b1481612471565b82525050565b6000612b268383612b0b565b60208301905092915050565b6000602082019050919050565b6000612b4a82612adf565b612b548185612aea565b9350612b5f83612afb565b8060005b83811015612b90578151612b778882612b1a565b9750612b8283612b32565b925050600181019050612b63565b5085935050505092915050565b60006020820190508181036000830152612bb78184612b3f565b905092915050565b612bc881612596565b8114612bd357600080fd5b50565b600081359050612be581612bbf565b92915050565b600080600060608486031215612c0457612c03612409565b5b6000612c1286828701612bd6565b9350506020612c2386828701612492565b9250506040612c3486828701612492565b9150509250925092565b612c4781612433565b82525050565b6000602082019050612c626000830184612c3e565b92915050565b60008060408385031215612c7f57612c7e612409565b5b6000612c8d85828601612492565b9250506020612c9e85828601612492565b9150509250929050565b60008060408385031215612cbf57612cbe612409565b5b6000612ccd8582860161245c565b9250506020612cde85828601612bd6565b9150509250929050565b6000819050919050565b6000612d0d612d08612d0384612413565b612ce8565b612413565b9050919050565b6000612d1f82612cf2565b9050919050565b6000612d3182612d14565b9050919050565b612d4181612d26565b82525050565b6000602082019050612d5c6000830184612d38565b92915050565b60008060408385031215612d7957612d78612409565b5b6000612d878582860161245c565b9250506020612d988582860161245c565b9150509250929050565b600080600080600060a08688031215612dbe57612dbd612409565b5b6000612dcc8882890161245c565b9550506020612ddd8882890161245c565b9450506040612dee88828901612492565b9350506060612dff88828901612492565b925050608086013567ffffffffffffffff811115612e2057612e1f61240e565b5b612e2c888289016128a7565b9150509295509295909350565b6000612e4482612d14565b9050919050565b612e5481612e39565b82525050565b6000602082019050612e6f6000830184612e4b565b92915050565b7f455243313135353a2061646472657373207a65726f206973206e6f742061207660008201527f616c6964206f776e657200000000000000000000000000000000000000000000602082015250565b6000612ed1602a83612604565b9150612edc82612e75565b604082019050919050565b60006020820190508181036000830152612f0081612ec4565b9050919050565b7f4e487b7100000000000000000000000000000000000000000000000000000000600052602260045260246000fd5b60006002820490506001821680612f4e57607f821691505b602082108103612f6157612f60612f07565b5b50919050565b7f455243313135353a2063616c6c6572206973206e6f7420746f6b656e206f776e60008201527f6572206f7220617070726f766564000000000000000000000000000000000000602082015250565b6000612fc3602e83612604565b9150612fce82612f67565b604082019050919050565b60006020820190508181036000830152612ff281612fb6565b9050919050565b7f455243313135353a206163636f756e747320616e6420696473206c656e67746860008201527f206d69736d617463680000000000000000000000000000000000000000000000602082015250565b6000613055602983612604565b915061306082612ff9565b604082019050919050565b6000602082019050818103600083015261308481613048565b9050919050565b7f4e487b7100000000000000000000000000000000000000000000000000000000600052603260045260246000fd5b7f4e487b7100000000000000000000000000000000000000000000000000000000600052601160045260246000fd5b60006130f482612471565b91507fffffffffffffffffffffffffffffffffffffffffffffffffffffffffffffffff8203613126576131256130ba565b5b600182019050919050565b7f556e7175616c6966696564000000000000000000000000000000000000000000600082015250565b6000613167600b83612604565b915061317282613131565b602082019050919050565b600060208201905081810360008301526131968161315a565b9050919050565b7f496e73756666696369656e74207175616e74697479206f6620546f6b656e204960008201527f4420300000000000000000000000000000000000000000000000000000000000602082015250565b60006131f9602383612604565b91506132048261319d565b604082019050919050565b60006020820190508181036000830152613228816131ec565b9050919050565b6000819050919050565b61324a61324582612471565b61322f565b82525050565b60008160601b9050919050565b600061326882613250565b9050919050565b600061327a8261325d565b9050919050565b61329261328d82612433565b61326f565b82525050565b60006132a48287613239565b6020820191506132b48286613281565b6014820191506132c48285613239565b6020820191506132d48284613239565b60208201915081905095945050505050565b7f4e487b7100000000000000000000000000000000000000000000000000000000600052601260045260246000fd5b600061332082612471565b915061332b83612471565b92508261333b5761333a6132e6565b5b828206905092915050565b7f4e6f74207965742074696d6520666f722073616c650000000000000000000000600082015250565b600061337c601583612604565b915061338782613346565b602082019050919050565b600060208201905081810360008301526133ab8161336f565b9050919050565b7f496e76616c696420746f6b656e20494400000000000000000000000000000000600082015250565b60006133e8601083612604565b91506133f3826133b2565b602082019050919050565b60006020820190508181036000830152613417816133db565b9050919050565b600061342982612471565b915061343483612471565b925082820190508082111561344c5761344b6130ba565b5b92915050565b7f546f74616c207175616e74697479206578636565647320746865206d6178696d60008201527f756d20616c6c6f77656400000000000000000000000000000000000000000000602082015250565b60006134ae602a83612604565b91506134b982613452565b604082019050919050565b600060208201905081810360008301526134dd816134a1565b9050919050565b60006134ef82612471565b91506134fa83612471565b925082820261350881612471565b9150828204841483151761351f5761351e6130ba565b5b5092915050565b7f4e6f7420656e6f756768206e617469766520636f696e00000000000000000000600082015250565b600061355c601683612604565b915061356782613526565b602082019050919050565b6000602082019050818103600083015261358b8161354f565b9050919050565b7f646f6e74206e656564206e617469766520636f696e0000000000000000000000600082015250565b60006135c8601583612604565b91506135d382613592565b602082019050919050565b600060208201905081810360008301526135f7816135bb565b9050919050565b60006060820190506136136000830186612c3e565b6136206020830185612c3e565b61362d60408301846124e7565b949350505050565b60008151905061364481612bbf565b92915050565b6000602082840312156136605761365f612409565b5b600061366e84828501613635565b91505092915050565b600060608201905061368c6000830186612c3e565b61369960208301856124e7565b6136a660408301846124e7565b949350505050565b7f4f776e61626c653a206e6577206f776e657220697320746865207a65726f206160008201527f6464726573730000000000000000000000000000000000000000000000000000602082015250565b600061370a602683612604565b9150613715826136ae565b604082019050919050565b60006020820190508181036000830152613739816136fd565b9050919050565b7f455243313135353a2069647320616e6420616d6f756e7473206c656e6774682060008201527f6d69736d61746368000000000000000000000000000000000000000000000000602082015250565b600061379c602883612604565b91506137a782613740565b604082019050919050565b600060208201905081810360008301526137cb8161378f565b9050919050565b7f455243313135353a207472616e7366657220746f20746865207a65726f20616460008201527f6472657373000000000000000000000000000000000000000000000000000000602082015250565b600061382e602583612604565b9150613839826137d2565b604082019050919050565b6000602082019050818103600083015261385d81613821565b9050919050565b7f455243313135353a20696e73756666696369656e742062616c616e636520666f60008201527f72207472616e7366657200000000000000000000000000000000000000000000602082015250565b60006138c0602a83612604565b91506138cb82613864565b604082019050919050565b600060208201905081810360008301526138ef816138b3565b9050919050565b600060408201905081810360008301526139108185612b3f565b905081810360208301526139248184612b3f565b90509392505050565b7f5265656e7472616e637947756172643a207265656e7472616e742063616c6c00600082015250565b6000613963601f83612604565b915061396e8261392d565b602082019050919050565b6000602082019050818103600083015261399281613956565b9050919050565b7f455243313135353a206d696e7420746f20746865207a65726f2061646472657360008201527f7300000000000000000000000000000000000000000000000000000000000000602082015250565b60006139f5602183612604565b9150613a0082613999565b604082019050919050565b60006020820190508181036000830152613a24816139e8565b9050919050565b6000604082019050613a4060008301856124e7565b613a4d60208301846124e7565b9392505050565b7f455243313135353a206275726e2066726f6d20746865207a65726f206164647260008201527f6573730000000000000000000000000000000000000000000000000000000000602082015250565b6000613ab0602383612604565b9150613abb82613a54565b604082019050919050565b60006020820190508181036000830152613adf81613aa3565b9050919050565b7f455243313135353a206275726e20616d6f756e7420657863656564732062616c60008201527f616e636500000000000000000000000000000000000000000000000000000000602082015250565b6000613b42602483612604565b9150613b4d82613ae6565b604082019050919050565b60006020820190508181036000830152613b7181613b35565b9050919050565b7f4f776e61626c653a2063616c6c6572206973206e6f7420746865206f776e6572600082015250565b6000613bae602083612604565b9150613bb982613b78565b602082019050919050565b60006020820190508181036000830152613bdd81613ba1565b9050919050565b7f455243313135353a2073657474696e6720617070726f76616c2073746174757360008201527f20666f722073656c660000000000000000000000000000000000000000000000602082015250565b6000613c40602983612604565b9150613c4b82613be4565b604082019050919050565b60006020820190508181036000830152613c6f81613c33565b9050919050565b600081519050919050565b600082825260208201905092915050565b6000613c9d82613c76565b613ca78185613c81565b9350613cb7818560208601612615565b613cc08161263f565b840191505092915050565b600060a082019050613ce06000830188612c3e565b613ced6020830187612c3e565b8181036040830152613cff8186612b3f565b90508181036060830152613d138185612b3f565b90508181036080830152613d278184613c92565b90509695505050505050565b600081519050613d428161253d565b92915050565b600060208284031215613d5e57613d5d612409565b5b6000613d6c84828501613d33565b91505092915050565b60008160e01c9050919050565b600060033d1115613da15760046000803e613d9e600051613d75565b90505b90565b600060443d10613e3157613db66123ff565b60043d036004823e80513d602482011167ffffffffffffffff82111715613dde575050613e31565b808201805167ffffffffffffffff811115613dfc5750505050613e31565b80602083010160043d038501811115613e19575050505050613e31565b613e288260200185018661270c565b82955050505050505b90565b7f455243313135353a207472616e7366657220746f206e6f6e2d4552433131353560008201527f526563656976657220696d706c656d656e746572000000000000000000000000602082015250565b6000613e90603483612604565b9150613e9b82613e34565b604082019050919050565b60006020820190508181036000830152613ebf81613e83565b9050919050565b7f455243313135353a204552433131353552656365697665722072656a6563746560008201527f6420746f6b656e73000000000000000000000000000000000000000000000000602082015250565b6000613f22602883612604565b9150613f2d82613ec6565b604082019050919050565b60006020820190508181036000830152613f5181613f15565b9050919050565b600060a082019050613f6d6000830188612c3e565b613f7a6020830187612c3e565b613f8760408301866124e7565b613f9460608301856124e7565b8181036080830152613fa68184613c92565b9050969550505050505056fea264697066735822122034435d73d988df38b8c813e53ec1ed5cfae103cb49e8a0564c5f0350d7c4ee9964736f6c63430008130033",
  "linkReferences": {},
  "deployedLinkReferences": {}
}