{
  "_format": "hh-sol-artifact-1",
  "contractName": "BuyNftSword",
  "sourceName": "contracts/Sword.sol",
  "abi": [
    {
      "inputs": [
        {
          "internalType": "address",
          "name": "tokenAddress",
          "type": "address"
        }
      ],
      "stateMutability": "nonpayable",
      "type": "constructor"
    },
    {
      "anonymous": false,
      "inputs": [
        {
          "indexed": true,
          "internalType": "address",
          "name": "account",
          "type": "address"
        },
        {
          "indexed": true,
          "internalType": "address",
          "name": "operator",
          "type": "address"
        },
        {
          "indexed": false,
          "internalType": "bool",
          "name": "approved",
          "type": "bool"
        }
      ],
      "name": "ApprovalForAll",
      "type": "event"
    },
    {
      "anonymous": false,
      "inputs": [
        {
          "indexed": false,
          "internalType": "address",
          "name": "user",
          "type": "address"
        },
        {
          "indexed": false,
          "internalType": "uint256",
          "name": "tokenID",
          "type": "uint256"
        },
        {
          "indexed": false,
          "internalType": "uint256",
          "name": "quantity",
          "type": "uint256"
        }
      ],
      "name": "BuyNftEther",
      "type": "event"
    },
    {
      "anonymous": false,
      "inputs": [
        {
          "indexed": false,
          "internalType": "address",
          "name": "user",
          "type": "address"
        },
        {
          "indexed": false,
          "internalType": "uint256",
          "name": "tokenID",
          "type": "uint256"
        },
        {
          "indexed": false,
          "internalType": "uint256",
          "name": "quantity",
          "type": "uint256"
        }
      ],
      "name": "BuyNftTokenCoin",
      "type": "event"
    },
    {
      "anonymous": false,
      "inputs": [
        {
          "indexed": true,
          "internalType": "address",
          "name": "previousOwner",
          "type": "address"
        },
        {
          "indexed": true,
          "internalType": "address",
          "name": "newOwner",
          "type": "address"
        }
      ],
      "name": "OwnershipTransferred",
      "type": "event"
    },
    {
      "anonymous": false,
      "inputs": [
        {
          "indexed": false,
          "internalType": "address",
          "name": "user",
          "type": "address"
        },
        {
          "indexed": false,
          "internalType": "uint256",
          "name": "id",
          "type": "uint256"
        },
        {
          "indexed": false,
          "internalType": "uint256",
          "name": "price",
          "type": "uint256"
        }
      ],
      "name": "SetPriceNft",
      "type": "event"
    },
    {
      "anonymous": false,
      "inputs": [
        {
          "indexed": false,
          "internalType": "address",
          "name": "user",
          "type": "address"
        },
        {
          "indexed": false,
          "internalType": "uint256",
          "name": "startTime",
          "type": "uint256"
        },
        {
          "indexed": false,
          "internalType": "uint256",
          "name": "endTime",
          "type": "uint256"
        }
      ],
      "name": "SetTimeOnSale",
      "type": "event"
    },
    {
      "anonymous": false,
      "inputs": [
        {
          "indexed": false,
          "internalType": "address",
          "name": "user",
          "type": "address"
        },
        {
          "indexed": false,
          "internalType": "uint256",
          "name": "quantity",
          "type": "uint256"
        }
      ],
      "name": "SwapNft",
      "type": "event"
    },
    {
      "anonymous": false,
      "inputs": [
        {
          "indexed": true,
          "internalType": "address",
          "name": "operator",
          "type": "address"
        },
        {
          "indexed": true,
          "internalType": "address",
          "name": "from",
          "type": "address"
        },
        {
          "indexed": true,
          "internalType": "address",
          "name": "to",
          "type": "address"
        },
        {
          "indexed": false,
          "internalType": "uint256[]",
          "name": "ids",
          "type": "uint256[]"
        },
        {
          "indexed": false,
          "internalType": "uint256[]",
          "name": "values",
          "type": "uint256[]"
        }
      ],
      "name": "TransferBatch",
      "type": "event"
    },
    {
      "anonymous": false,
      "inputs": [
        {
          "indexed": true,
          "internalType": "address",
          "name": "operator",
          "type": "address"
        },
        {
          "indexed": true,
          "internalType": "address",
          "name": "from",
          "type": "address"
        },
        {
          "indexed": true,
          "internalType": "address",
          "name": "to",
          "type": "address"
        },
        {
          "indexed": false,
          "internalType": "uint256",
          "name": "id",
          "type": "uint256"
        },
        {
          "indexed": false,
          "internalType": "uint256",
          "name": "value",
          "type": "uint256"
        }
      ],
      "name": "TransferSingle",
      "type": "event"
    },
    {
      "anonymous": false,
      "inputs": [
        {
          "indexed": false,
          "internalType": "string",
          "name": "value",
          "type": "string"
        },
        {
          "indexed": true,
          "internalType": "uint256",
          "name": "id",
          "type": "uint256"
        }
      ],
      "name": "URI",
      "type": "event"
    },
    {
      "inputs": [
        {
          "internalType": "address",
          "name": "",
          "type": "address"
        }
      ],
      "name": "amountBought",
      "outputs": [
        {
          "internalType": "uint256",
          "name": "",
          "type": "uint256"
        }
      ],
      "stateMutability": "view",
      "type": "function"
    },
    {
      "inputs": [
        {
          "internalType": "address",
          "name": "account",
          "type": "address"
        },
        {
          "internalType": "uint256",
          "name": "id",
          "type": "uint256"
        }
      ],
      "name": "balanceOf",
      "outputs": [
        {
          "internalType": "uint256",
          "name": "",
          "type": "uint256"
        }
      ],
      "stateMutability": "view",
      "type": "function"
    },
    {
      "inputs": [
        {
          "internalType": "address[]",
          "name": "accounts",
          "type": "address[]"
        },
        {
          "internalType": "uint256[]",
          "name": "ids",
          "type": "uint256[]"
        }
      ],
      "name": "balanceOfBatch",
      "outputs": [
        {
          "internalType": "uint256[]",
          "name": "",
          "type": "uint256[]"
        }
      ],
      "stateMutability": "view",
      "type": "function"
    },
    {
      "inputs": [
        {
          "internalType": "bool",
          "name": "isNativePayment",
          "type": "bool"
        },
        {
          "internalType": "uint256",
          "name": "tokenId",
          "type": "uint256"
        },
        {
          "internalType": "uint256",
          "name": "quantity",
          "type": "uint256"
        }
      ],
      "name": "buyNft",
      "outputs": [],
      "stateMutability": "payable",
      "type": "function"
    },
    {
      "inputs": [],
      "name": "endTime",
      "outputs": [
        {
          "internalType": "uint256",
          "name": "",
          "type": "uint256"
        }
      ],
      "stateMutability": "view",
      "type": "function"
    },
    {
      "inputs": [],
      "name": "generateRandomNumber",
      "outputs": [
        {
          "internalType": "uint256",
          "name": "",
          "type": "uint256"
        }
      ],
      "stateMutability": "view",
      "type": "function"
    },
    {
      "inputs": [
        {
          "internalType": "address",
          "name": "account",
          "type": "address"
        },
        {
          "internalType": "address",
          "name": "operator",
          "type": "address"
        }
      ],
      "name": "isApprovedForAll",
      "outputs": [
        {
          "internalType": "bool",
          "name": "",
          "type": "bool"
        }
      ],
      "stateMutability": "view",
      "type": "function"
    },
    {
      "inputs": [],
      "name": "maxQuantityNft",
      "outputs": [
        {
          "internalType": "uint256",
          "name": "",
          "type": "uint256"
        }
      ],
      "stateMutability": "view",
      "type": "function"
    },
    {
      "inputs": [],
      "name": "myTokenContract",
      "outputs": [
        {
          "internalType": "contract MyToken",
          "name": "",
          "type": "address"
        }
      ],
      "stateMutability": "view",
      "type": "function"
    },
    {
      "inputs": [
        {
          "internalType": "uint256",
          "name": "",
          "type": "uint256"
        }
      ],
      "name": "nftPrices",
      "outputs": [
        {
          "internalType": "uint256",
          "name": "",
          "type": "uint256"
        }
      ],
      "stateMutability": "view",
      "type": "function"
    },
    {
      "inputs": [],
      "name": "owner",
      "outputs": [
        {
          "internalType": "address",
          "name": "",
          "type": "address"
        }
      ],
      "stateMutability": "view",
      "type": "function"
    },
    {
      "inputs": [],
      "name": "renounceOwnership",
      "outputs": [],
      "stateMutability": "nonpayable",
      "type": "function"
    },
    {
      "inputs": [
        {
          "internalType": "address",
          "name": "from",
          "type": "address"
        },
        {
          "internalType": "address",
          "name": "to",
          "type": "address"
        },
        {
          "internalType": "uint256[]",
          "name": "ids",
          "type": "uint256[]"
        },
        {
          "internalType": "uint256[]",
          "name": "amounts",
          "type": "uint256[]"
        },
        {
          "internalType": "bytes",
          "name": "data",
          "type": "bytes"
        }
      ],
      "name": "safeBatchTransferFrom",
      "outputs": [],
      "stateMutability": "nonpayable",
      "type": "function"
    },
    {
      "inputs": [
        {
          "internalType": "address",
          "name": "from",
          "type": "address"
        },
        {
          "internalType": "address",
          "name": "to",
          "type": "address"
        },
        {
          "internalType": "uint256",
          "name": "id",
          "type": "uint256"
        },
        {
          "internalType": "uint256",
          "name": "amount",
          "type": "uint256"
        },
        {
          "internalType": "bytes",
          "name": "data",
          "type": "bytes"
        }
      ],
      "name": "safeTransferFrom",
      "outputs": [],
      "stateMutability": "nonpayable",
      "type": "function"
    },
    {
      "inputs": [
        {
          "internalType": "address",
          "name": "operator",
          "type": "address"
        },
        {
          "internalType": "bool",
          "name": "approved",
          "type": "bool"
        }
      ],
      "name": "setApprovalForAll",
      "outputs": [],
      "stateMutability": "nonpayable",
      "type": "function"
    },
    {
      "inputs": [
        {
          "internalType": "uint256",
          "name": "id",
          "type": "uint256"
        },
        {
          "internalType": "uint256",
          "name": "_price",
          "type": "uint256"
        }
      ],
      "name": "setPriceNft",
      "outputs": [],
      "stateMutability": "nonpayable",
      "type": "function"
    },
    {
      "inputs": [
        {
          "internalType": "uint256",
          "name": "_startTime",
          "type": "uint256"
        },
        {
          "internalType": "uint256",
          "name": "_endTime",
          "type": "uint256"
        }
      ],
      "name": "setTimeOnSale",
      "outputs": [],
      "stateMutability": "nonpayable",
      "type": "function"
    },
    {
      "inputs": [],
      "name": "startTime",
      "outputs": [
        {
          "internalType": "uint256",
          "name": "",
          "type": "uint256"
        }
      ],
      "stateMutability": "view",
      "type": "function"
    },
    {
      "inputs": [
        {
          "internalType": "bytes4",
          "name": "interfaceId",
          "type": "bytes4"
        }
      ],
      "name": "supportsInterface",
      "outputs": [
        {
          "internalType": "bool",
          "name": "",
          "type": "bool"
        }
      ],
      "stateMutability": "view",
      "type": "function"
    },
    {
      "inputs": [],
      "name": "swapNft",
      "outputs": [],
      "stateMutability": "nonpayable",
      "type": "function"
    },
    {
      "inputs": [],
      "name": "swordIronId",
      "outputs": [
        {
          "internalType": "uint256",
          "name": "",
          "type": "uint256"
        }
      ],
      "stateMutability": "view",
      "type": "function"
    },
    {
      "inputs": [],
      "name": "swordWoodId",
      "outputs": [
        {
          "internalType": "uint256",
          "name": "",
          "type": "uint256"
        }
      ],
      "stateMutability": "view",
      "type": "function"
    },
    {
      "inputs": [],
      "name": "token",
      "outputs": [
        {
          "internalType": "contract IERC20",
          "name": "",
          "type": "address"
        }
      ],
      "stateMutability": "view",
      "type": "function"
    },
    {
      "inputs": [
        {
          "internalType": "address",
          "name": "newOwner",
          "type": "address"
        }
      ],
      "name": "transferOwnership",
      "outputs": [],
      "stateMutability": "nonpayable",
      "type": "function"
    },
    {
      "inputs": [
        {
          "internalType": "uint256",
          "name": "",
          "type": "uint256"
        }
      ],
      "name": "uri",
      "outputs": [
        {
          "internalType": "string",
          "name": "",
          "type": "string"
        }
      ],
      "stateMutability": "view",
      "type": "function"
    }
  ],
  "bytecode": "0x6080604052600a6006553480156200001657600080fd5b50604051620047123803806200471283398181016040528101906200003c91906200027a565b604051806020016040528060008152506200005d816200012d60201b60201c565b506200007e620000726200014260201b60201c565b6200014a60201b60201c565b600160048190555080600560006101000a81548173ffffffffffffffffffffffffffffffffffffffff021916908373ffffffffffffffffffffffffffffffffffffffff160217905550670de0b6b3a7640000600a6000808152602001908152602001600020819055506729a2241af62c0000600a600060018152602001908152602001600020819055504260078190555062093a8042620001209190620002e5565b6008819055505062000677565b80600290816200013e919062000590565b5050565b600033905090565b6000600360009054906101000a900473ffffffffffffffffffffffffffffffffffffffff16905081600360006101000a81548173ffffffffffffffffffffffffffffffffffffffff021916908373ffffffffffffffffffffffffffffffffffffffff1602179055508173ffffffffffffffffffffffffffffffffffffffff168173ffffffffffffffffffffffffffffffffffffffff167f8be0079c531659141344cd1fd0a4f28419497f9722a3daafe3b4186f6b6457e060405160405180910390a35050565b600080fd5b600073ffffffffffffffffffffffffffffffffffffffff82169050919050565b6000620002428262000215565b9050919050565b620002548162000235565b81146200026057600080fd5b50565b600081519050620002748162000249565b92915050565b60006020828403121562000293576200029262000210565b5b6000620002a38482850162000263565b91505092915050565b6000819050919050565b7f4e487b7100000000000000000000000000000000000000000000000000000000600052601160045260246000fd5b6000620002f282620002ac565b9150620002ff83620002ac565b92508282019050808211156200031a5762000319620002b6565b5b92915050565b600081519050919050565b7f4e487b7100000000000000000000000000000000000000000000000000000000600052604160045260246000fd5b7f4e487b7100000000000000000000000000000000000000000000000000000000600052602260045260246000fd5b60006002820490506001821680620003a257607f821691505b602082108103620003b857620003b76200035a565b5b50919050565b60008190508160005260206000209050919050565b60006020601f8301049050919050565b600082821b905092915050565b600060088302620004227fffffffffffffffffffffffffffffffffffffffffffffffffffffffffffffffff82620003e3565b6200042e8683620003e3565b95508019841693508086168417925050509392505050565b6000819050919050565b6000620004716200046b6200046584620002ac565b62000446565b620002ac565b9050919050565b6000819050919050565b6200048d8362000450565b620004a56200049c8262000478565b848454620003f0565b825550505050565b600090565b620004bc620004ad565b620004c981848462000482565b505050565b5b81811015620004f157620004e5600082620004b2565b600181019050620004cf565b5050565b601f82111562000540576200050a81620003be565b6200051584620003d3565b8101602085101562000525578190505b6200053d6200053485620003d3565b830182620004ce565b50505b505050565b600082821c905092915050565b6000620005656000198460080262000545565b1980831691505092915050565b600062000580838362000552565b9150826002028217905092915050565b6200059b8262000320565b67ffffffffffffffff811115620005b757620005b66200032b565b5b620005c3825462000389565b620005d0828285620004f5565b600060209050601f831160018114620006085760008415620005f3578287015190505b620005ff858262000572565b8655506200066f565b601f1984166200061886620003be565b60005b8281101562000642578489015182556001820191506020850194506020810190506200061b565b868310156200066257848901516200065e601f89168262000552565b8355505b6001600288020188555050505b505050505050565b61408b80620006876000396000f3fe6080604052600436106101655760003560e01c806378e97925116100d1578063cb22d14b1161008a578063e985e9c511610064578063e985e9c51461051e578063f242432a1461055b578063f2fde38b14610584578063fc0c546a146105ad57610165565b8063cb22d14b1461048d578063d6f79b77146104b8578063d9f10a2b146104e157610165565b806378e979251461039e57806385f43379146103c95780638da5cb5b146103e557806398f1950d14610410578063a22cb46514610439578063bb134cfb1461046257610165565b80633197cbb6116101235780633197cbb6146102b25780634e1273f4146102dd57806356e77b4e1461031a5780636f8afcef14610345578063715018a61461035c578063773a11541461037357610165565b8062fdd58e1461016a57806301ffc9a7146101a75780630e89341c146101e45780632375bd53146102215780632d4a16dd1461024c5780632eb2c2d614610289575b600080fd5b34801561017657600080fd5b50610191600480360381019061018c91906124de565b6105d8565b60405161019e919061252d565b60405180910390f35b3480156101b357600080fd5b506101ce60048036038101906101c991906125a0565b6106a0565b6040516101db91906125e8565b60405180910390f35b3480156101f057600080fd5b5061020b60048036038101906102069190612603565b610782565b60405161021891906126c0565b60405180910390f35b34801561022d57600080fd5b50610236610816565b604051610243919061252d565b60405180910390f35b34801561025857600080fd5b50610273600480360381019061026e91906126e2565b61081b565b604051610280919061252d565b60405180910390f35b34801561029557600080fd5b506102b060048036038101906102ab919061290c565b610833565b005b3480156102be57600080fd5b506102c76108d4565b6040516102d4919061252d565b60405180910390f35b3480156102e957600080fd5b5061030460048036038101906102ff9190612a9e565b6108da565b6040516103119190612bd4565b60405180910390f35b34801561032657600080fd5b5061032f6109f3565b60405161033c919061252d565b60405180910390f35b34801561035157600080fd5b5061035a6109f8565b005b34801561036857600080fd5b50610371610b14565b005b34801561037f57600080fd5b50610388610b28565b604051610395919061252d565b60405180910390f35b3480156103aa57600080fd5b506103b3610b70565b6040516103c0919061252d565b60405180910390f35b6103e360048036038101906103de9190612c22565b610b76565b005b3480156103f157600080fd5b506103fa610f4a565b6040516104079190612c84565b60405180910390f35b34801561041c57600080fd5b5061043760048036038101906104329190612c9f565b610f74565b005b34801561044557600080fd5b50610460600480360381019061045b9190612cdf565b610fc9565b005b34801561046e57600080fd5b50610477610fdf565b6040516104849190612d7e565b60405180910390f35b34801561049957600080fd5b506104a2611005565b6040516104af919061252d565b60405180910390f35b3480156104c457600080fd5b506104df60048036038101906104da9190612c9f565b61100b565b005b3480156104ed57600080fd5b5061050860048036038101906105039190612603565b6110b8565b604051610515919061252d565b60405180910390f35b34801561052a57600080fd5b5061054560048036038101906105409190612d99565b6110d0565b60405161055291906125e8565b60405180910390f35b34801561056757600080fd5b50610582600480360381019061057d9190612dd9565b611164565b005b34801561059057600080fd5b506105ab60048036038101906105a691906126e2565b611205565b005b3480156105b957600080fd5b506105c2611288565b6040516105cf9190612e91565b60405180910390f35b60008073ffffffffffffffffffffffffffffffffffffffff168373ffffffffffffffffffffffffffffffffffffffff1603610648576040517f08c379a000000000000000000000000000000000000000000000000000000000815260040161063f90612f1e565b60405180910390fd5b60008083815260200190815260200160002060008473ffffffffffffffffffffffffffffffffffffffff1673ffffffffffffffffffffffffffffffffffffffff16815260200190815260200160002054905092915050565b60007fd9b67a26000000000000000000000000000000000000000000000000000000007bffffffffffffffffffffffffffffffffffffffffffffffffffffffff1916827bffffffffffffffffffffffffffffffffffffffffffffffffffffffff1916148061076b57507f0e89341c000000000000000000000000000000000000000000000000000000007bffffffffffffffffffffffffffffffffffffffffffffffffffffffff1916827bffffffffffffffffffffffffffffffffffffffffffffffffffffffff1916145b8061077b575061077a826112ae565b5b9050919050565b60606002805461079190612f6d565b80601f01602080910402602001604051908101604052809291908181526020018280546107bd90612f6d565b801561080a5780601f106107df5761010080835404028352916020019161080a565b820191906000526020600020905b8154815290600101906020018083116107ed57829003601f168201915b50505050509050919050565b600081565b600b6020528060005260406000206000915090505481565b61083b611318565b73ffffffffffffffffffffffffffffffffffffffff168573ffffffffffffffffffffffffffffffffffffffff16148061088157506108808561087b611318565b6110d0565b5b6108c0576040517f08c379a00000000000000000000000000000000000000000000000000000000081526004016108b790613010565b60405180910390fd5b6108cd8585858585611320565b5050505050565b60085481565b60608151835114610920576040517f08c379a0000000000000000000000000000000000000000000000000000000008152600401610917906130a2565b60405180910390fd5b6000835167ffffffffffffffff81111561093d5761093c612714565b5b60405190808252806020026020018201604052801561096b5781602001602082028036833780820191505090505b50905060005b84518110156109e8576109b88582815181106109905761098f6130c2565b5b60200260200101518583815181106109ab576109aa6130c2565b5b60200260200101516105d8565b8282815181106109cb576109ca6130c2565b5b602002602001018181525050806109e190613120565b9050610971565b508091505092915050565b600181565b610a00611641565b6005600b60003373ffffffffffffffffffffffffffffffffffffffff1673ffffffffffffffffffffffffffffffffffffffff168152602001908152602001600020541015610a83576040517f08c379a0000000000000000000000000000000000000000000000000000000008152600401610a7a906131b4565b60405180910390fd5b6002610a903360006105d8565b1015610ad1576040517f08c379a0000000000000000000000000000000000000000000000000000000008152600401610ac890613246565b60405180910390fd5b6032610adb610b28565b10610afd57610afc3360018060405180602001604052806000815250611690565b5b610b0a3360006002611840565b610b12611a86565b565b610b1c611a90565b610b266000611b0e565b565b600080606442334443604051602001610b4494939291906132cf565b6040516020818303038152906040528051906020012060001c610b67919061334c565b90508091505090565b60075481565b600754421015610bbb576040517f08c379a0000000000000000000000000000000000000000000000000000000008152600401610bb2906133c9565b60405180910390fd5b600854421115610c00576040517f08c379a0000000000000000000000000000000000000000000000000000000008152600401610bf790613435565b60405180910390fd5b610c08611641565b6000821480610c175750600182145b610c56576040517f08c379a0000000000000000000000000000000000000000000000000000000008152600401610c4d906134a1565b60405180910390fd5b60065481600b60003373ffffffffffffffffffffffffffffffffffffffff1673ffffffffffffffffffffffffffffffffffffffff16815260200190815260200160002054610ca491906134c1565b1115610ce5576040517f08c379a0000000000000000000000000000000000000000000000000000000008152600401610cdc90613567565b60405180910390fd5b600081600a600085815260200190815260200160002054610d069190613587565b90508315610de45781600a600085815260200190815260200160002054610d2d9190613587565b3414610d6e576040517f08c379a0000000000000000000000000000000000000000000000000000000008152600401610d6590613615565b60405180910390fd5b610d8933848460405180602001604052806000815250611690565b81600b60003373ffffffffffffffffffffffffffffffffffffffff1673ffffffffffffffffffffffffffffffffffffffff1681526020019081526020016000206000828254610dd891906134c1565b92505081905550610f3c565b60003414610e27576040517f08c379a0000000000000000000000000000000000000000000000000000000008152600401610e1e90613681565b60405180910390fd5b600560009054906101000a900473ffffffffffffffffffffffffffffffffffffffff1673ffffffffffffffffffffffffffffffffffffffff166323b872dd3330846040518463ffffffff1660e01b8152600401610e86939291906136a1565b6020604051808303816000875af1158015610ea5573d6000803e3d6000fd5b505050506040513d601f19601f82011682018060405250810190610ec991906136ed565b50610ee533848460405180602001604052806000815250611690565b81600b60003373ffffffffffffffffffffffffffffffffffffffff1673ffffffffffffffffffffffffffffffffffffffff1681526020019081526020016000206000828254610f3491906134c1565b925050819055505b50610f45611a86565b505050565b6000600360009054906101000a900473ffffffffffffffffffffffffffffffffffffffff16905090565b610f7c611a90565b81600781905550806008819055507fd9d069d741dae0fa3479ba0a96f186ea06bac2b26114d0baf637d19215a43581338383604051610fbd9392919061371a565b60405180910390a15050565b610fdb610fd4611318565b8383611bd4565b5050565b600960009054906101000a900473ffffffffffffffffffffffffffffffffffffffff1681565b60065481565b611013611a90565b60008214806110225750600182145b611061576040517f08c379a0000000000000000000000000000000000000000000000000000000008152600401611058906134a1565b60405180910390fd5b80600a6000848152602001908152602001600020819055507fa2dd9604d212a11b417e71d786af2d996b8155d8f3fa629e9cf4a6adc7cda12b3383836040516110ac9392919061371a565b60405180910390a15050565b600a6020528060005260406000206000915090505481565b6000600160008473ffffffffffffffffffffffffffffffffffffffff1673ffffffffffffffffffffffffffffffffffffffff16815260200190815260200160002060008373ffffffffffffffffffffffffffffffffffffffff1673ffffffffffffffffffffffffffffffffffffffff16815260200190815260200160002060009054906101000a900460ff16905092915050565b61116c611318565b73ffffffffffffffffffffffffffffffffffffffff168573ffffffffffffffffffffffffffffffffffffffff1614806111b257506111b1856111ac611318565b6110d0565b5b6111f1576040517f08c379a00000000000000000000000000000000000000000000000000000000081526004016111e890613010565b60405180910390fd5b6111fe8585858585611d40565b5050505050565b61120d611a90565b600073ffffffffffffffffffffffffffffffffffffffff168173ffffffffffffffffffffffffffffffffffffffff160361127c576040517f08c379a0000000000000000000000000000000000000000000000000000000008152600401611273906137c3565b60405180910390fd5b61128581611b0e565b50565b600560009054906101000a900473ffffffffffffffffffffffffffffffffffffffff1681565b60007f01ffc9a7000000000000000000000000000000000000000000000000000000007bffffffffffffffffffffffffffffffffffffffffffffffffffffffff1916827bffffffffffffffffffffffffffffffffffffffffffffffffffffffff1916149050919050565b600033905090565b8151835114611364576040517f08c379a000000000000000000000000000000000000000000000000000000000815260040161135b90613855565b60405180910390fd5b600073ffffffffffffffffffffffffffffffffffffffff168473ffffffffffffffffffffffffffffffffffffffff16036113d3576040517f08c379a00000000000000000000000000000000000000000000000000000000081526004016113ca906138e7565b60405180910390fd5b60006113dd611318565b90506113ed818787878787611fdb565b60005b845181101561159e57600085828151811061140e5761140d6130c2565b5b60200260200101519050600085838151811061142d5761142c6130c2565b5b60200260200101519050600080600084815260200190815260200160002060008b73ffffffffffffffffffffffffffffffffffffffff1673ffffffffffffffffffffffffffffffffffffffff168152602001908152602001600020549050818110156114ce576040517f08c379a00000000000000000000000000000000000000000000000000000000081526004016114c590613979565b60405180910390fd5b81810360008085815260200190815260200160002060008c73ffffffffffffffffffffffffffffffffffffffff1673ffffffffffffffffffffffffffffffffffffffff168152602001908152602001600020819055508160008085815260200190815260200160002060008b73ffffffffffffffffffffffffffffffffffffffff1673ffffffffffffffffffffffffffffffffffffffff168152602001908152602001600020600082825461158391906134c1565b925050819055505050508061159790613120565b90506113f0565b508473ffffffffffffffffffffffffffffffffffffffff168673ffffffffffffffffffffffffffffffffffffffff168273ffffffffffffffffffffffffffffffffffffffff167f4a39dc06d4c0dbc64b70af90fd698a233a518aa5d07e595d983b8c0526c8f7fb8787604051611615929190613999565b60405180910390a461162b818787878787611fe3565b611639818787878787611feb565b505050505050565b600260045403611686576040517f08c379a000000000000000000000000000000000000000000000000000000000815260040161167d90613a1c565b60405180910390fd5b6002600481905550565b600073ffffffffffffffffffffffffffffffffffffffff168473ffffffffffffffffffffffffffffffffffffffff16036116ff576040517f08c379a00000000000000000000000000000000000000000000000000000000081526004016116f690613aae565b60405180910390fd5b6000611709611318565b90506000611716856121c2565b90506000611723856121c2565b905061173483600089858589611fdb565b8460008088815260200190815260200160002060008973ffffffffffffffffffffffffffffffffffffffff1673ffffffffffffffffffffffffffffffffffffffff168152602001908152602001600020600082825461179391906134c1565b925050819055508673ffffffffffffffffffffffffffffffffffffffff16600073ffffffffffffffffffffffffffffffffffffffff168473ffffffffffffffffffffffffffffffffffffffff167fc3d58168c5ae7397731d063d5bbf3d657854427343f4c083240f7aacaa2d0f628989604051611811929190613ace565b60405180910390a461182883600089858589611fe3565b6118378360008989898961223c565b50505050505050565b600073ffffffffffffffffffffffffffffffffffffffff168373ffffffffffffffffffffffffffffffffffffffff16036118af576040517f08c379a00000000000000000000000000000000000000000000000000000000081526004016118a690613b69565b60405180910390fd5b60006118b9611318565b905060006118c6846121c2565b905060006118d3846121c2565b90506118f383876000858560405180602001604052806000815250611fdb565b600080600087815260200190815260200160002060008873ffffffffffffffffffffffffffffffffffffffff1673ffffffffffffffffffffffffffffffffffffffff1681526020019081526020016000205490508481101561198a576040517f08c379a000000000000000000000000000000000000000000000000000000000815260040161198190613bfb565b60405180910390fd5b84810360008088815260200190815260200160002060008973ffffffffffffffffffffffffffffffffffffffff1673ffffffffffffffffffffffffffffffffffffffff16815260200190815260200160002081905550600073ffffffffffffffffffffffffffffffffffffffff168773ffffffffffffffffffffffffffffffffffffffff168573ffffffffffffffffffffffffffffffffffffffff167fc3d58168c5ae7397731d063d5bbf3d657854427343f4c083240f7aacaa2d0f628989604051611a57929190613ace565b60405180910390a4611a7d84886000868660405180602001604052806000815250611fe3565b50505050505050565b6001600481905550565b611a98611318565b73ffffffffffffffffffffffffffffffffffffffff16611ab6610f4a565b73ffffffffffffffffffffffffffffffffffffffff1614611b0c576040517f08c379a0000000000000000000000000000000000000000000000000000000008152600401611b0390613c67565b60405180910390fd5b565b6000600360009054906101000a900473ffffffffffffffffffffffffffffffffffffffff16905081600360006101000a81548173ffffffffffffffffffffffffffffffffffffffff021916908373ffffffffffffffffffffffffffffffffffffffff1602179055508173ffffffffffffffffffffffffffffffffffffffff168173ffffffffffffffffffffffffffffffffffffffff167f8be0079c531659141344cd1fd0a4f28419497f9722a3daafe3b4186f6b6457e060405160405180910390a35050565b8173ffffffffffffffffffffffffffffffffffffffff168373ffffffffffffffffffffffffffffffffffffffff1603611c42576040517f08c379a0000000000000000000000000000000000000000000000000000000008152600401611c3990613cf9565b60405180910390fd5b80600160008573ffffffffffffffffffffffffffffffffffffffff1673ffffffffffffffffffffffffffffffffffffffff16815260200190815260200160002060008473ffffffffffffffffffffffffffffffffffffffff1673ffffffffffffffffffffffffffffffffffffffff16815260200190815260200160002060006101000a81548160ff0219169083151502179055508173ffffffffffffffffffffffffffffffffffffffff168373ffffffffffffffffffffffffffffffffffffffff167f17307eab39ab6107e8899845ad3d59bd9653f200f220920489ca2b5937696c3183604051611d3391906125e8565b60405180910390a3505050565b600073ffffffffffffffffffffffffffffffffffffffff168473ffffffffffffffffffffffffffffffffffffffff1603611daf576040517f08c379a0000000000000000000000000000000000000000000000000000000008152600401611da6906138e7565b60405180910390fd5b6000611db9611318565b90506000611dc6856121c2565b90506000611dd3856121c2565b9050611de3838989858589611fdb565b600080600088815260200190815260200160002060008a73ffffffffffffffffffffffffffffffffffffffff1673ffffffffffffffffffffffffffffffffffffffff16815260200190815260200160002054905085811015611e7a576040517f08c379a0000000000000000000000000000000000000000000000000000000008152600401611e7190613979565b60405180910390fd5b85810360008089815260200190815260200160002060008b73ffffffffffffffffffffffffffffffffffffffff1673ffffffffffffffffffffffffffffffffffffffff168152602001908152602001600020819055508560008089815260200190815260200160002060008a73ffffffffffffffffffffffffffffffffffffffff1673ffffffffffffffffffffffffffffffffffffffff1681526020019081526020016000206000828254611f2f91906134c1565b925050819055508773ffffffffffffffffffffffffffffffffffffffff168973ffffffffffffffffffffffffffffffffffffffff168573ffffffffffffffffffffffffffffffffffffffff167fc3d58168c5ae7397731d063d5bbf3d657854427343f4c083240f7aacaa2d0f628a8a604051611fac929190613ace565b60405180910390a4611fc2848a8a86868a611fe3565b611fd0848a8a8a8a8a61223c565b505050505050505050565b505050505050565b505050505050565b61200a8473ffffffffffffffffffffffffffffffffffffffff16612413565b156121ba578373ffffffffffffffffffffffffffffffffffffffff1663bc197c8187878686866040518663ffffffff1660e01b8152600401612050959493929190613d6e565b6020604051808303816000875af192505050801561208c57506040513d601f19601f820116820180604052508101906120899190613deb565b60015b61213157612098613e25565b806308c379a0036120f457506120ac613e47565b806120b757506120f6565b806040517f08c379a00000000000000000000000000000000000000000000000000000000081526004016120eb91906126c0565b60405180910390fd5b505b6040517f08c379a000000000000000000000000000000000000000000000000000000000815260040161212890613f49565b60405180910390fd5b63bc197c8160e01b7bffffffffffffffffffffffffffffffffffffffffffffffffffffffff1916817bffffffffffffffffffffffffffffffffffffffffffffffffffffffff1916146121b8576040517f08c379a00000000000000000000000000000000000000000000000000000000081526004016121af90613fdb565b60405180910390fd5b505b505050505050565b60606000600167ffffffffffffffff8111156121e1576121e0612714565b5b60405190808252806020026020018201604052801561220f5781602001602082028036833780820191505090505b5090508281600081518110612227576122266130c2565b5b60200260200101818152505080915050919050565b61225b8473ffffffffffffffffffffffffffffffffffffffff16612413565b1561240b578373ffffffffffffffffffffffffffffffffffffffff1663f23a6e6187878686866040518663ffffffff1660e01b81526004016122a1959493929190613ffb565b6020604051808303816000875af19250505080156122dd57506040513d601f19601f820116820180604052508101906122da9190613deb565b60015b612382576122e9613e25565b806308c379a00361234557506122fd613e47565b806123085750612347565b806040517f08c379a000000000000000000000000000000000000000000000000000000000815260040161233c91906126c0565b60405180910390fd5b505b6040517f08c379a000000000000000000000000000000000000000000000000000000000815260040161237990613f49565b60405180910390fd5b63f23a6e6160e01b7bffffffffffffffffffffffffffffffffffffffffffffffffffffffff1916817bffffffffffffffffffffffffffffffffffffffffffffffffffffffff191614612409576040517f08c379a000000000000000000000000000000000000000000000000000000000815260040161240090613fdb565b60405180910390fd5b505b505050505050565b6000808273ffffffffffffffffffffffffffffffffffffffff163b119050919050565b6000604051905090565b600080fd5b600080fd5b600073ffffffffffffffffffffffffffffffffffffffff82169050919050565b60006124758261244a565b9050919050565b6124858161246a565b811461249057600080fd5b50565b6000813590506124a28161247c565b92915050565b6000819050919050565b6124bb816124a8565b81146124c657600080fd5b50565b6000813590506124d8816124b2565b92915050565b600080604083850312156124f5576124f4612440565b5b600061250385828601612493565b9250506020612514858286016124c9565b9150509250929050565b612527816124a8565b82525050565b6000602082019050612542600083018461251e565b92915050565b60007fffffffff0000000000000000000000000000000000000000000000000000000082169050919050565b61257d81612548565b811461258857600080fd5b50565b60008135905061259a81612574565b92915050565b6000602082840312156125b6576125b5612440565b5b60006125c48482850161258b565b91505092915050565b60008115159050919050565b6125e2816125cd565b82525050565b60006020820190506125fd60008301846125d9565b92915050565b60006020828403121561261957612618612440565b5b6000612627848285016124c9565b91505092915050565b600081519050919050565b600082825260208201905092915050565b60005b8381101561266a57808201518184015260208101905061264f565b60008484015250505050565b6000601f19601f8301169050919050565b600061269282612630565b61269c818561263b565b93506126ac81856020860161264c565b6126b581612676565b840191505092915050565b600060208201905081810360008301526126da8184612687565b905092915050565b6000602082840312156126f8576126f7612440565b5b600061270684828501612493565b91505092915050565b600080fd5b7f4e487b7100000000000000000000000000000000000000000000000000000000600052604160045260246000fd5b61274c82612676565b810181811067ffffffffffffffff8211171561276b5761276a612714565b5b80604052505050565b600061277e612436565b905061278a8282612743565b919050565b600067ffffffffffffffff8211156127aa576127a9612714565b5b602082029050602081019050919050565b600080fd5b60006127d36127ce8461278f565b612774565b905080838252602082019050602084028301858111156127f6576127f56127bb565b5b835b8181101561281f578061280b88826124c9565b8452602084019350506020810190506127f8565b5050509392505050565b600082601f83011261283e5761283d61270f565b5b813561284e8482602086016127c0565b91505092915050565b600080fd5b600067ffffffffffffffff82111561287757612876612714565b5b61288082612676565b9050602081019050919050565b82818337600083830152505050565b60006128af6128aa8461285c565b612774565b9050828152602081018484840111156128cb576128ca612857565b5b6128d684828561288d565b509392505050565b600082601f8301126128f3576128f261270f565b5b813561290384826020860161289c565b91505092915050565b600080600080600060a0868803121561292857612927612440565b5b600061293688828901612493565b955050602061294788828901612493565b945050604086013567ffffffffffffffff81111561296857612967612445565b5b61297488828901612829565b935050606086013567ffffffffffffffff81111561299557612994612445565b5b6129a188828901612829565b925050608086013567ffffffffffffffff8111156129c2576129c1612445565b5b6129ce888289016128de565b9150509295509295909350565b600067ffffffffffffffff8211156129f6576129f5612714565b5b602082029050602081019050919050565b6000612a1a612a15846129db565b612774565b90508083825260208201905060208402830185811115612a3d57612a3c6127bb565b5b835b81811015612a665780612a528882612493565b845260208401935050602081019050612a3f565b5050509392505050565b600082601f830112612a8557612a8461270f565b5b8135612a95848260208601612a07565b91505092915050565b60008060408385031215612ab557612ab4612440565b5b600083013567ffffffffffffffff811115612ad357612ad2612445565b5b612adf85828601612a70565b925050602083013567ffffffffffffffff811115612b0057612aff612445565b5b612b0c85828601612829565b9150509250929050565b600081519050919050565b600082825260208201905092915050565b6000819050602082019050919050565b612b4b816124a8565b82525050565b6000612b5d8383612b42565b60208301905092915050565b6000602082019050919050565b6000612b8182612b16565b612b8b8185612b21565b9350612b9683612b32565b8060005b83811015612bc7578151612bae8882612b51565b9750612bb983612b69565b925050600181019050612b9a565b5085935050505092915050565b60006020820190508181036000830152612bee8184612b76565b905092915050565b612bff816125cd565b8114612c0a57600080fd5b50565b600081359050612c1c81612bf6565b92915050565b600080600060608486031215612c3b57612c3a612440565b5b6000612c4986828701612c0d565b9350506020612c5a868287016124c9565b9250506040612c6b868287016124c9565b9150509250925092565b612c7e8161246a565b82525050565b6000602082019050612c996000830184612c75565b92915050565b60008060408385031215612cb657612cb5612440565b5b6000612cc4858286016124c9565b9250506020612cd5858286016124c9565b9150509250929050565b60008060408385031215612cf657612cf5612440565b5b6000612d0485828601612493565b9250506020612d1585828601612c0d565b9150509250929050565b6000819050919050565b6000612d44612d3f612d3a8461244a565b612d1f565b61244a565b9050919050565b6000612d5682612d29565b9050919050565b6000612d6882612d4b565b9050919050565b612d7881612d5d565b82525050565b6000602082019050612d936000830184612d6f565b92915050565b60008060408385031215612db057612daf612440565b5b6000612dbe85828601612493565b9250506020612dcf85828601612493565b9150509250929050565b600080600080600060a08688031215612df557612df4612440565b5b6000612e0388828901612493565b9550506020612e1488828901612493565b9450506040612e25888289016124c9565b9350506060612e36888289016124c9565b925050608086013567ffffffffffffffff811115612e5757612e56612445565b5b612e63888289016128de565b9150509295509295909350565b6000612e7b82612d4b565b9050919050565b612e8b81612e70565b82525050565b6000602082019050612ea66000830184612e82565b92915050565b7f455243313135353a2061646472657373207a65726f206973206e6f742061207660008201527f616c6964206f776e657200000000000000000000000000000000000000000000602082015250565b6000612f08602a8361263b565b9150612f1382612eac565b604082019050919050565b60006020820190508181036000830152612f3781612efb565b9050919050565b7f4e487b7100000000000000000000000000000000000000000000000000000000600052602260045260246000fd5b60006002820490506001821680612f8557607f821691505b602082108103612f9857612f97612f3e565b5b50919050565b7f455243313135353a2063616c6c6572206973206e6f7420746f6b656e206f776e60008201527f6572206f7220617070726f766564000000000000000000000000000000000000602082015250565b6000612ffa602e8361263b565b915061300582612f9e565b604082019050919050565b6000602082019050818103600083015261302981612fed565b9050919050565b7f455243313135353a206163636f756e747320616e6420696473206c656e67746860008201527f206d69736d617463680000000000000000000000000000000000000000000000602082015250565b600061308c60298361263b565b915061309782613030565b604082019050919050565b600060208201905081810360008301526130bb8161307f565b9050919050565b7f4e487b7100000000000000000000000000000000000000000000000000000000600052603260045260246000fd5b7f4e487b7100000000000000000000000000000000000000000000000000000000600052601160045260246000fd5b600061312b826124a8565b91507fffffffffffffffffffffffffffffffffffffffffffffffffffffffffffffffff820361315d5761315c6130f1565b5b600182019050919050565b7f556e7175616c6966696564000000000000000000000000000000000000000000600082015250565b600061319e600b8361263b565b91506131a982613168565b602082019050919050565b600060208201905081810360008301526131cd81613191565b9050919050565b7f496e73756666696369656e74207175616e74697479206f6620546f6b656e204960008201527f4420300000000000000000000000000000000000000000000000000000000000602082015250565b600061323060238361263b565b915061323b826131d4565b604082019050919050565b6000602082019050818103600083015261325f81613223565b9050919050565b6000819050919050565b61328161327c826124a8565b613266565b82525050565b60008160601b9050919050565b600061329f82613287565b9050919050565b60006132b182613294565b9050919050565b6132c96132c48261246a565b6132a6565b82525050565b60006132db8287613270565b6020820191506132eb82866132b8565b6014820191506132fb8285613270565b60208201915061330b8284613270565b60208201915081905095945050505050565b7f4e487b7100000000000000000000000000000000000000000000000000000000600052601260045260246000fd5b6000613357826124a8565b9150613362836124a8565b9250826133725761337161331d565b5b828206905092915050565b7f49742773206e6f742074696d65206f6e2073616c650000000000000000000000600082015250565b60006133b360158361263b565b91506133be8261337d565b602082019050919050565b600060208201905081810360008301526133e2816133a6565b9050919050565b7f5061737365642074696d65206f6e2073616c6500000000000000000000000000600082015250565b600061341f60138361263b565b915061342a826133e9565b602082019050919050565b6000602082019050818103600083015261344e81613412565b9050919050565b7f496e76616c696420746f6b656e20494400000000000000000000000000000000600082015250565b600061348b60108361263b565b915061349682613455565b602082019050919050565b600060208201905081810360008301526134ba8161347e565b9050919050565b60006134cc826124a8565b91506134d7836124a8565b92508282019050808211156134ef576134ee6130f1565b5b92915050565b7f546f74616c207175616e74697479206578636565647320746865206d6178696d60008201527f756d20616c6c6f77656400000000000000000000000000000000000000000000602082015250565b6000613551602a8361263b565b915061355c826134f5565b604082019050919050565b6000602082019050818103600083015261358081613544565b9050919050565b6000613592826124a8565b915061359d836124a8565b92508282026135ab816124a8565b915082820484148315176135c2576135c16130f1565b5b5092915050565b7f4e6f7420656e6f756768206e617469766520636f696e00000000000000000000600082015250565b60006135ff60168361263b565b915061360a826135c9565b602082019050919050565b6000602082019050818103600083015261362e816135f2565b9050919050565b7f446f6e74206e6565642065746865720000000000000000000000000000000000600082015250565b600061366b600f8361263b565b915061367682613635565b602082019050919050565b6000602082019050818103600083015261369a8161365e565b9050919050565b60006060820190506136b66000830186612c75565b6136c36020830185612c75565b6136d0604083018461251e565b949350505050565b6000815190506136e781612bf6565b92915050565b60006020828403121561370357613702612440565b5b6000613711848285016136d8565b91505092915050565b600060608201905061372f6000830186612c75565b61373c602083018561251e565b613749604083018461251e565b949350505050565b7f4f776e61626c653a206e6577206f776e657220697320746865207a65726f206160008201527f6464726573730000000000000000000000000000000000000000000000000000602082015250565b60006137ad60268361263b565b91506137b882613751565b604082019050919050565b600060208201905081810360008301526137dc816137a0565b9050919050565b7f455243313135353a2069647320616e6420616d6f756e7473206c656e6774682060008201527f6d69736d61746368000000000000000000000000000000000000000000000000602082015250565b600061383f60288361263b565b915061384a826137e3565b604082019050919050565b6000602082019050818103600083015261386e81613832565b9050919050565b7f455243313135353a207472616e7366657220746f20746865207a65726f20616460008201527f6472657373000000000000000000000000000000000000000000000000000000602082015250565b60006138d160258361263b565b91506138dc82613875565b604082019050919050565b60006020820190508181036000830152613900816138c4565b9050919050565b7f455243313135353a20696e73756666696369656e742062616c616e636520666f60008201527f72207472616e7366657200000000000000000000000000000000000000000000602082015250565b6000613963602a8361263b565b915061396e82613907565b604082019050919050565b6000602082019050818103600083015261399281613956565b9050919050565b600060408201905081810360008301526139b38185612b76565b905081810360208301526139c78184612b76565b90509392505050565b7f5265656e7472616e637947756172643a207265656e7472616e742063616c6c00600082015250565b6000613a06601f8361263b565b9150613a11826139d0565b602082019050919050565b60006020820190508181036000830152613a35816139f9565b9050919050565b7f455243313135353a206d696e7420746f20746865207a65726f2061646472657360008201527f7300000000000000000000000000000000000000000000000000000000000000602082015250565b6000613a9860218361263b565b9150613aa382613a3c565b604082019050919050565b60006020820190508181036000830152613ac781613a8b565b9050919050565b6000604082019050613ae3600083018561251e565b613af0602083018461251e565b9392505050565b7f455243313135353a206275726e2066726f6d20746865207a65726f206164647260008201527f6573730000000000000000000000000000000000000000000000000000000000602082015250565b6000613b5360238361263b565b9150613b5e82613af7565b604082019050919050565b60006020820190508181036000830152613b8281613b46565b9050919050565b7f455243313135353a206275726e20616d6f756e7420657863656564732062616c60008201527f616e636500000000000000000000000000000000000000000000000000000000602082015250565b6000613be560248361263b565b9150613bf082613b89565b604082019050919050565b60006020820190508181036000830152613c1481613bd8565b9050919050565b7f4f776e61626c653a2063616c6c6572206973206e6f7420746865206f776e6572600082015250565b6000613c5160208361263b565b9150613c5c82613c1b565b602082019050919050565b60006020820190508181036000830152613c8081613c44565b9050919050565b7f455243313135353a2073657474696e6720617070726f76616c2073746174757360008201527f20666f722073656c660000000000000000000000000000000000000000000000602082015250565b6000613ce360298361263b565b9150613cee82613c87565b604082019050919050565b60006020820190508181036000830152613d1281613cd6565b9050919050565b600081519050919050565b600082825260208201905092915050565b6000613d4082613d19565b613d4a8185613d24565b9350613d5a81856020860161264c565b613d6381612676565b840191505092915050565b600060a082019050613d836000830188612c75565b613d906020830187612c75565b8181036040830152613da28186612b76565b90508181036060830152613db68185612b76565b90508181036080830152613dca8184613d35565b90509695505050505050565b600081519050613de581612574565b92915050565b600060208284031215613e0157613e00612440565b5b6000613e0f84828501613dd6565b91505092915050565b60008160e01c9050919050565b600060033d1115613e445760046000803e613e41600051613e18565b90505b90565b600060443d10613ed457613e59612436565b60043d036004823e80513d602482011167ffffffffffffffff82111715613e81575050613ed4565b808201805167ffffffffffffffff811115613e9f5750505050613ed4565b80602083010160043d038501811115613ebc575050505050613ed4565b613ecb82602001850186612743565b82955050505050505b90565b7f455243313135353a207472616e7366657220746f206e6f6e2d4552433131353560008201527f526563656976657220696d706c656d656e746572000000000000000000000000602082015250565b6000613f3360348361263b565b9150613f3e82613ed7565b604082019050919050565b60006020820190508181036000830152613f6281613f26565b9050919050565b7f455243313135353a204552433131353552656365697665722072656a6563746560008201527f6420746f6b656e73000000000000000000000000000000000000000000000000602082015250565b6000613fc560288361263b565b9150613fd082613f69565b604082019050919050565b60006020820190508181036000830152613ff481613fb8565b9050919050565b600060a0820190506140106000830188612c75565b61401d6020830187612c75565b61402a604083018661251e565b614037606083018561251e565b81810360808301526140498184613d35565b9050969550505050505056fea2646970667358221220c520e69c25099027e1db865b6cb0c2940ddea85cc6fc83ece4c4fab72163583264736f6c63430008130033",
  "linkReferences": {},
  "deployedLinkReferences": {}
}